{
  "contractName": "TresEnRaya",
  "abi": [
    {
      "inputs": [
        {
          "internalType": "address",
          "name": "_jugador2",
          "type": "address"
        }
      ],
      "stateMutability": "nonpayable",
      "type": "constructor"
    },
    {
      "inputs": [],
      "name": "empezar",
      "outputs": [],
      "stateMutability": "nonpayable",
      "type": "function"
    },
    {
      "inputs": [],
      "name": "finalizar",
      "outputs": [],
      "stateMutability": "nonpayable",
      "type": "function"
    },
    {
      "inputs": [],
      "name": "Tiempo",
      "outputs": [
        {
          "internalType": "uint256",
          "name": "",
          "type": "uint256"
        }
      ],
      "stateMutability": "view",
      "type": "function"
    },
    {
      "inputs": [],
      "name": "Pasar_turno",
      "outputs": [],
      "stateMutability": "nonpayable",
      "type": "function"
    },
    {
      "inputs": [
        {
          "internalType": "uint8",
          "name": "x",
          "type": "uint8"
        },
        {
          "internalType": "uint8",
          "name": "y",
          "type": "uint8"
        }
      ],
      "name": "Movimientos",
      "outputs": [],
      "stateMutability": "nonpayable",
      "type": "function"
    },
    {
      "inputs": [],
      "name": "Reglas_Ganar",
      "outputs": [
        {
          "internalType": "enum TresEnRaya.Estado_Tablero",
          "name": "",
          "type": "uint8"
        }
      ],
      "stateMutability": "view",
      "type": "function"
    },
    {
      "inputs": [],
      "name": "Control_turno",
      "outputs": [
        {
          "internalType": "address",
          "name": "",
          "type": "address"
        }
      ],
      "stateMutability": "view",
      "type": "function"
    },
    {
      "inputs": [],
      "name": "Dibujar_Figura_Jugador",
      "outputs": [
        {
          "internalType": "enum TresEnRaya.Estado_Tablero",
          "name": "",
          "type": "uint8"
        }
      ],
      "stateMutability": "view",
      "type": "function"
    },
    {
      "inputs": [],
      "name": "EsFin",
      "outputs": [
        {
          "internalType": "bool",
          "name": "",
          "type": "bool"
        }
      ],
      "stateMutability": "view",
      "type": "function"
    },
    {
      "inputs": [],
      "name": "Ganador",
      "outputs": [
        {
          "internalType": "uint256",
          "name": "",
          "type": "uint256"
        }
      ],
      "stateMutability": "view",
      "type": "function"
    },
    {
      "inputs": [],
      "name": "MostrarTableroFilas",
      "outputs": [
        {
          "internalType": "string",
          "name": "",
          "type": "string"
        }
      ],
      "stateMutability": "view",
      "type": "function"
    },
    {
      "inputs": [
        {
          "internalType": "uint8",
          "name": "x",
          "type": "uint8"
        },
        {
          "internalType": "uint8",
          "name": "y",
          "type": "uint8"
        }
      ],
      "name": "ControlTablero",
      "outputs": [
        {
          "internalType": "string",
          "name": "",
          "type": "string"
        }
      ],
      "stateMutability": "view",
      "type": "function"
    },
    {
      "inputs": [
        {
          "internalType": "uint8",
          "name": "y",
          "type": "uint8"
        }
      ],
      "name": "FilaVirtual",
      "outputs": [
        {
          "internalType": "string",
          "name": "",
          "type": "string"
        }
      ],
      "stateMutability": "view",
      "type": "function"
    }
  ],
  "bytecode": "0x608060405260008060006101000a81548160ff021916908360ff1602179055503480156200002c57600080fd5b5060405162003c1d38038062003c1d83398181016040528101906200005291906200016f565b600073ffffffffffffffffffffffffffffffffffffffff168173ffffffffffffffffffffffffffffffffffffffff1614156200008d57600080fd5b33600460006101000a81548173ffffffffffffffffffffffffffffffffffffffff021916908373ffffffffffffffffffffffffffffffffffffffff16021790555080600560006101000a81548173ffffffffffffffffffffffffffffffffffffffff021916908373ffffffffffffffffffffffffffffffffffffffff1602179055506200011f6200013660201b60201c565b6200012f6200013f60201b60201c565b506200027f565b42600681905550565b60065460786200015091906200019b565b600781905550565b600081519050620001698162000265565b92915050565b6000602082840312156200018257600080fd5b6000620001928482850162000158565b91505092915050565b6000620001a8826200022c565b9150620001b5836200022c565b9250827fffffffffffffffffffffffffffffffffffffffffffffffffffffffffffffffff03821115620001ed57620001ec62000236565b5b828201905092915050565b600062000205826200020c565b9050919050565b600073ffffffffffffffffffffffffffffffffffffffff82169050919050565b6000819050919050565b7f4e487b7100000000000000000000000000000000000000000000000000000000600052601160045260246000fd5b6200027081620001f8565b81146200027c57600080fd5b50565b61398e806200028f6000396000f3fe608060405234801561001057600080fd5b50600436106100cf5760003560e01c8063963af8f91161008c578063c3f770c111610066578063c3f770c1146101ca578063c66c21d9146101e8578063e8d2933714610206578063ff8fec8114610236576100cf565b8063963af8f9146101745780639de4a52e1461017e578063b668ed2e146101ae576100cf565b806340d58c73146100d457806352404dde146100de578063531443db146100fc57806355911cc11461011a5780635992babb1461013857806390ef4a3414610156575b600080fd5b6100dc610240565b005b6100e6610249565b6040516100f3919061364c565b60405180910390f35b61010461028f565b60405161011191906136ae565b60405180910390f35b6101226102a4565b60405161012f91906136ae565b60405180910390f35b6101406103bf565b60405161014d9190613631565b60405180910390f35b61015e61295c565b60405161016b9190613631565b60405180910390f35b61017c612993565b005b61019860048036038101906101939190613468565b612b47565b6040516101a5919061364c565b60405180910390f35b6101c860048036038101906101c39190613468565b612f1b565b005b6101d26132b2565b6040516101df9190613616565b60405180910390f35b6101f061334f565b6040516101fd91906135fb565b60405180910390f35b610220600480360381019061021b919061343f565b6133c8565b60405161022d919061364c565b60405180910390f35b61023e613413565b005b42600681905550565b606061025560006133c8565b61025f60016133c8565b61026960026133c8565b60405160200161027b939291906135ca565b604051602081830303815290604052905090565b60004260075461029f919061377d565b905090565b6000806102af6103bf565b90506002808111156102ea577f4e487b7100000000000000000000000000000000000000000000000000000000600052602160045260246000fd5b816002811115610323577f4e487b7100000000000000000000000000000000000000000000000000000000600052602160045260246000fd5b14156103335760019150506103bc565b6001600281111561036d577f4e487b7100000000000000000000000000000000000000000000000000000000600052602160045260246000fd5b8160028111156103a6577f4e487b7100000000000000000000000000000000000000000000000000000000600052602160045260246000fd5b14156103b65760029150506103bc565b60009150505b90565b60008060028111156103fa577f4e487b7100000000000000000000000000000000000000000000000000000000600052602160045260246000fd5b6001600060038110610435577f4e487b7100000000000000000000000000000000000000000000000000000000600052603260045260246000fd5b0160006003811061046f577f4e487b7100000000000000000000000000000000000000000000000000000000600052603260045260246000fd5b602091828204019190069054906101000a900460ff1660028111156104bd577f4e487b7100000000000000000000000000000000000000000000000000000000600052602160045260246000fd5b1415801561064e57506001600060038110610501577f4e487b7100000000000000000000000000000000000000000000000000000000600052603260045260246000fd5b0160016003811061053b577f4e487b7100000000000000000000000000000000000000000000000000000000600052603260045260246000fd5b602091828204019190069054906101000a900460ff166002811115610589577f4e487b7100000000000000000000000000000000000000000000000000000000600052602160045260246000fd5b60016000600381106105c4577f4e487b7100000000000000000000000000000000000000000000000000000000600052603260045260246000fd5b016000600381106105fe577f4e487b7100000000000000000000000000000000000000000000000000000000600052603260045260246000fd5b602091828204019190069054906101000a900460ff16600281111561064c577f4e487b7100000000000000000000000000000000000000000000000000000000600052602160045260246000fd5b145b80156107dd57506001600060038110610690577f4e487b7100000000000000000000000000000000000000000000000000000000600052603260045260246000fd5b016002600381106106ca577f4e487b7100000000000000000000000000000000000000000000000000000000600052603260045260246000fd5b602091828204019190069054906101000a900460ff166002811115610718577f4e487b7100000000000000000000000000000000000000000000000000000000600052602160045260246000fd5b6001600060038110610753577f4e487b7100000000000000000000000000000000000000000000000000000000600052603260045260246000fd5b0160006003811061078d577f4e487b7100000000000000000000000000000000000000000000000000000000600052603260045260246000fd5b602091828204019190069054906101000a900460ff1660028111156107db577f4e487b7100000000000000000000000000000000000000000000000000000000600052602160045260246000fd5b145b1561087457600160006003811061081d577f4e487b7100000000000000000000000000000000000000000000000000000000600052603260045260246000fd5b01600060038110610857577f4e487b7100000000000000000000000000000000000000000000000000000000600052603260045260246000fd5b602091828204019190069054906101000a900460ff169050612959565b600060028111156108ae577f4e487b7100000000000000000000000000000000000000000000000000000000600052602160045260246000fd5b600180600381106108e8577f4e487b7100000000000000000000000000000000000000000000000000000000600052603260045260246000fd5b01600060038110610922577f4e487b7100000000000000000000000000000000000000000000000000000000600052603260045260246000fd5b602091828204019190069054906101000a900460ff166002811115610970577f4e487b7100000000000000000000000000000000000000000000000000000000600052602160045260246000fd5b14158015610aff5750600180600381106109b3577f4e487b7100000000000000000000000000000000000000000000000000000000600052603260045260246000fd5b016001600381106109ed577f4e487b7100000000000000000000000000000000000000000000000000000000600052603260045260246000fd5b602091828204019190069054906101000a900460ff166002811115610a3b577f4e487b7100000000000000000000000000000000000000000000000000000000600052602160045260246000fd5b60018060038110610a75577f4e487b7100000000000000000000000000000000000000000000000000000000600052603260045260246000fd5b01600060038110610aaf577f4e487b7100000000000000000000000000000000000000000000000000000000600052603260045260246000fd5b602091828204019190069054906101000a900460ff166002811115610afd577f4e487b7100000000000000000000000000000000000000000000000000000000600052602160045260246000fd5b145b8015610c8c575060018060038110610b40577f4e487b7100000000000000000000000000000000000000000000000000000000600052603260045260246000fd5b01600260038110610b7a577f4e487b7100000000000000000000000000000000000000000000000000000000600052603260045260246000fd5b602091828204019190069054906101000a900460ff166002811115610bc8577f4e487b7100000000000000000000000000000000000000000000000000000000600052602160045260246000fd5b60018060038110610c02577f4e487b7100000000000000000000000000000000000000000000000000000000600052603260045260246000fd5b01600060038110610c3c577f4e487b7100000000000000000000000000000000000000000000000000000000600052603260045260246000fd5b602091828204019190069054906101000a900460ff166002811115610c8a577f4e487b7100000000000000000000000000000000000000000000000000000000600052602160045260246000fd5b145b15610d225760018060038110610ccb577f4e487b7100000000000000000000000000000000000000000000000000000000600052603260045260246000fd5b01600060038110610d05577f4e487b7100000000000000000000000000000000000000000000000000000000600052603260045260246000fd5b602091828204019190069054906101000a900460ff169050612959565b60006002811115610d5c577f4e487b7100000000000000000000000000000000000000000000000000000000600052602160045260246000fd5b6001600260038110610d97577f4e487b7100000000000000000000000000000000000000000000000000000000600052603260045260246000fd5b01600060038110610dd1577f4e487b7100000000000000000000000000000000000000000000000000000000600052603260045260246000fd5b602091828204019190069054906101000a900460ff166002811115610e1f577f4e487b7100000000000000000000000000000000000000000000000000000000600052602160045260246000fd5b14158015610fb057506001600260038110610e63577f4e487b7100000000000000000000000000000000000000000000000000000000600052603260045260246000fd5b01600160038110610e9d577f4e487b7100000000000000000000000000000000000000000000000000000000600052603260045260246000fd5b602091828204019190069054906101000a900460ff166002811115610eeb577f4e487b7100000000000000000000000000000000000000000000000000000000600052602160045260246000fd5b6001600260038110610f26577f4e487b7100000000000000000000000000000000000000000000000000000000600052603260045260246000fd5b01600060038110610f60577f4e487b7100000000000000000000000000000000000000000000000000000000600052603260045260246000fd5b602091828204019190069054906101000a900460ff166002811115610fae577f4e487b7100000000000000000000000000000000000000000000000000000000600052602160045260246000fd5b145b801561113f57506001600260038110610ff2577f4e487b7100000000000000000000000000000000000000000000000000000000600052603260045260246000fd5b0160026003811061102c577f4e487b7100000000000000000000000000000000000000000000000000000000600052603260045260246000fd5b602091828204019190069054906101000a900460ff16600281111561107a577f4e487b7100000000000000000000000000000000000000000000000000000000600052602160045260246000fd5b60016002600381106110b5577f4e487b7100000000000000000000000000000000000000000000000000000000600052603260045260246000fd5b016000600381106110ef577f4e487b7100000000000000000000000000000000000000000000000000000000600052603260045260246000fd5b602091828204019190069054906101000a900460ff16600281111561113d577f4e487b7100000000000000000000000000000000000000000000000000000000600052602160045260246000fd5b145b156111d5576001806003811061117e577f4e487b7100000000000000000000000000000000000000000000000000000000600052603260045260246000fd5b016000600381106111b8577f4e487b7100000000000000000000000000000000000000000000000000000000600052603260045260246000fd5b602091828204019190069054906101000a900460ff169050612959565b6000600281111561120f577f4e487b7100000000000000000000000000000000000000000000000000000000600052602160045260246000fd5b600160006003811061124a577f4e487b7100000000000000000000000000000000000000000000000000000000600052603260045260246000fd5b01600060038110611284577f4e487b7100000000000000000000000000000000000000000000000000000000600052603260045260246000fd5b602091828204019190069054906101000a900460ff1660028111156112d2577f4e487b7100000000000000000000000000000000000000000000000000000000600052602160045260246000fd5b14158015611462575060018060038110611315577f4e487b7100000000000000000000000000000000000000000000000000000000600052603260045260246000fd5b0160006003811061134f577f4e487b7100000000000000000000000000000000000000000000000000000000600052603260045260246000fd5b602091828204019190069054906101000a900460ff16600281111561139d577f4e487b7100000000000000000000000000000000000000000000000000000000600052602160045260246000fd5b60016000600381106113d8577f4e487b7100000000000000000000000000000000000000000000000000000000600052603260045260246000fd5b01600060038110611412577f4e487b7100000000000000000000000000000000000000000000000000000000600052603260045260246000fd5b602091828204019190069054906101000a900460ff166002811115611460577f4e487b7100000000000000000000000000000000000000000000000000000000600052602160045260246000fd5b145b80156115f1575060016002600381106114a4577f4e487b7100000000000000000000000000000000000000000000000000000000600052603260045260246000fd5b016000600381106114de577f4e487b7100000000000000000000000000000000000000000000000000000000600052603260045260246000fd5b602091828204019190069054906101000a900460ff16600281111561152c577f4e487b7100000000000000000000000000000000000000000000000000000000600052602160045260246000fd5b6001600060038110611567577f4e487b7100000000000000000000000000000000000000000000000000000000600052603260045260246000fd5b016000600381106115a1577f4e487b7100000000000000000000000000000000000000000000000000000000600052603260045260246000fd5b602091828204019190069054906101000a900460ff1660028111156115ef577f4e487b7100000000000000000000000000000000000000000000000000000000600052602160045260246000fd5b145b15611688576001600060038110611631577f4e487b7100000000000000000000000000000000000000000000000000000000600052603260045260246000fd5b0160006003811061166b577f4e487b7100000000000000000000000000000000000000000000000000000000600052603260045260246000fd5b602091828204019190069054906101000a900460ff169050612959565b600060028111156116c2577f4e487b7100000000000000000000000000000000000000000000000000000000600052602160045260246000fd5b60016000600381106116fd577f4e487b7100000000000000000000000000000000000000000000000000000000600052603260045260246000fd5b01600160038110611737577f4e487b7100000000000000000000000000000000000000000000000000000000600052603260045260246000fd5b602091828204019190069054906101000a900460ff166002811115611785577f4e487b7100000000000000000000000000000000000000000000000000000000600052602160045260246000fd5b141580156119155750600180600381106117c8577f4e487b7100000000000000000000000000000000000000000000000000000000600052603260045260246000fd5b01600160038110611802577f4e487b7100000000000000000000000000000000000000000000000000000000600052603260045260246000fd5b602091828204019190069054906101000a900460ff166002811115611850577f4e487b7100000000000000000000000000000000000000000000000000000000600052602160045260246000fd5b600160006003811061188b577f4e487b7100000000000000000000000000000000000000000000000000000000600052603260045260246000fd5b016001600381106118c5577f4e487b7100000000000000000000000000000000000000000000000000000000600052603260045260246000fd5b602091828204019190069054906101000a900460ff166002811115611913577f4e487b7100000000000000000000000000000000000000000000000000000000600052602160045260246000fd5b145b8015611aa457506001600260038110611957577f4e487b7100000000000000000000000000000000000000000000000000000000600052603260045260246000fd5b01600160038110611991577f4e487b7100000000000000000000000000000000000000000000000000000000600052603260045260246000fd5b602091828204019190069054906101000a900460ff1660028111156119df577f4e487b7100000000000000000000000000000000000000000000000000000000600052602160045260246000fd5b6001600060038110611a1a577f4e487b7100000000000000000000000000000000000000000000000000000000600052603260045260246000fd5b01600160038110611a54577f4e487b7100000000000000000000000000000000000000000000000000000000600052603260045260246000fd5b602091828204019190069054906101000a900460ff166002811115611aa2577f4e487b7100000000000000000000000000000000000000000000000000000000600052602160045260246000fd5b145b15611b3b576001600060038110611ae4577f4e487b7100000000000000000000000000000000000000000000000000000000600052603260045260246000fd5b01600160038110611b1e577f4e487b7100000000000000000000000000000000000000000000000000000000600052603260045260246000fd5b602091828204019190069054906101000a900460ff169050612959565b60006002811115611b75577f4e487b7100000000000000000000000000000000000000000000000000000000600052602160045260246000fd5b6001600060038110611bb0577f4e487b7100000000000000000000000000000000000000000000000000000000600052603260045260246000fd5b01600260038110611bea577f4e487b7100000000000000000000000000000000000000000000000000000000600052603260045260246000fd5b602091828204019190069054906101000a900460ff166002811115611c38577f4e487b7100000000000000000000000000000000000000000000000000000000600052602160045260246000fd5b14158015611dc8575060018060038110611c7b577f4e487b7100000000000000000000000000000000000000000000000000000000600052603260045260246000fd5b01600260038110611cb5577f4e487b7100000000000000000000000000000000000000000000000000000000600052603260045260246000fd5b602091828204019190069054906101000a900460ff166002811115611d03577f4e487b7100000000000000000000000000000000000000000000000000000000600052602160045260246000fd5b6001600060038110611d3e577f4e487b7100000000000000000000000000000000000000000000000000000000600052603260045260246000fd5b01600260038110611d78577f4e487b7100000000000000000000000000000000000000000000000000000000600052603260045260246000fd5b602091828204019190069054906101000a900460ff166002811115611dc6577f4e487b7100000000000000000000000000000000000000000000000000000000600052602160045260246000fd5b145b8015611f5757506001600260038110611e0a577f4e487b7100000000000000000000000000000000000000000000000000000000600052603260045260246000fd5b01600260038110611e44577f4e487b7100000000000000000000000000000000000000000000000000000000600052603260045260246000fd5b602091828204019190069054906101000a900460ff166002811115611e92577f4e487b7100000000000000000000000000000000000000000000000000000000600052602160045260246000fd5b6001600060038110611ecd577f4e487b7100000000000000000000000000000000000000000000000000000000600052603260045260246000fd5b01600260038110611f07577f4e487b7100000000000000000000000000000000000000000000000000000000600052603260045260246000fd5b602091828204019190069054906101000a900460ff166002811115611f55577f4e487b7100000000000000000000000000000000000000000000000000000000600052602160045260246000fd5b145b15611fee576001600060038110611f97577f4e487b7100000000000000000000000000000000000000000000000000000000600052603260045260246000fd5b01600260038110611fd1577f4e487b7100000000000000000000000000000000000000000000000000000000600052603260045260246000fd5b602091828204019190069054906101000a900460ff169050612959565b60006002811115612028577f4e487b7100000000000000000000000000000000000000000000000000000000600052602160045260246000fd5b6001600060038110612063577f4e487b7100000000000000000000000000000000000000000000000000000000600052603260045260246000fd5b0160006003811061209d577f4e487b7100000000000000000000000000000000000000000000000000000000600052603260045260246000fd5b602091828204019190069054906101000a900460ff1660028111156120eb577f4e487b7100000000000000000000000000000000000000000000000000000000600052602160045260246000fd5b1415801561227b57506001806003811061212e577f4e487b7100000000000000000000000000000000000000000000000000000000600052603260045260246000fd5b01600160038110612168577f4e487b7100000000000000000000000000000000000000000000000000000000600052603260045260246000fd5b602091828204019190069054906101000a900460ff1660028111156121b6577f4e487b7100000000000000000000000000000000000000000000000000000000600052602160045260246000fd5b60016000600381106121f1577f4e487b7100000000000000000000000000000000000000000000000000000000600052603260045260246000fd5b0160006003811061222b577f4e487b7100000000000000000000000000000000000000000000000000000000600052603260045260246000fd5b602091828204019190069054906101000a900460ff166002811115612279577f4e487b7100000000000000000000000000000000000000000000000000000000600052602160045260246000fd5b145b801561240a575060016002600381106122bd577f4e487b7100000000000000000000000000000000000000000000000000000000600052603260045260246000fd5b016002600381106122f7577f4e487b7100000000000000000000000000000000000000000000000000000000600052603260045260246000fd5b602091828204019190069054906101000a900460ff166002811115612345577f4e487b7100000000000000000000000000000000000000000000000000000000600052602160045260246000fd5b6001600060038110612380577f4e487b7100000000000000000000000000000000000000000000000000000000600052603260045260246000fd5b016000600381106123ba577f4e487b7100000000000000000000000000000000000000000000000000000000600052603260045260246000fd5b602091828204019190069054906101000a900460ff166002811115612408577f4e487b7100000000000000000000000000000000000000000000000000000000600052602160045260246000fd5b145b156124a157600160006003811061244a577f4e487b7100000000000000000000000000000000000000000000000000000000600052603260045260246000fd5b01600060038110612484577f4e487b7100000000000000000000000000000000000000000000000000000000600052603260045260246000fd5b602091828204019190069054906101000a900460ff169050612959565b600060028111156124db577f4e487b7100000000000000000000000000000000000000000000000000000000600052602160045260246000fd5b6001600060038110612516577f4e487b7100000000000000000000000000000000000000000000000000000000600052603260045260246000fd5b01600260038110612550577f4e487b7100000000000000000000000000000000000000000000000000000000600052603260045260246000fd5b602091828204019190069054906101000a900460ff16600281111561259e577f4e487b7100000000000000000000000000000000000000000000000000000000600052602160045260246000fd5b1415801561272e5750600180600381106125e1577f4e487b7100000000000000000000000000000000000000000000000000000000600052603260045260246000fd5b0160016003811061261b577f4e487b7100000000000000000000000000000000000000000000000000000000600052603260045260246000fd5b602091828204019190069054906101000a900460ff166002811115612669577f4e487b7100000000000000000000000000000000000000000000000000000000600052602160045260246000fd5b60016000600381106126a4577f4e487b7100000000000000000000000000000000000000000000000000000000600052603260045260246000fd5b016002600381106126de577f4e487b7100000000000000000000000000000000000000000000000000000000600052603260045260246000fd5b602091828204019190069054906101000a900460ff16600281111561272c577f4e487b7100000000000000000000000000000000000000000000000000000000600052602160045260246000fd5b145b80156128bd57506001600260038110612770577f4e487b7100000000000000000000000000000000000000000000000000000000600052603260045260246000fd5b016000600381106127aa577f4e487b7100000000000000000000000000000000000000000000000000000000600052603260045260246000fd5b602091828204019190069054906101000a900460ff1660028111156127f8577f4e487b7100000000000000000000000000000000000000000000000000000000600052602160045260246000fd5b6001600060038110612833577f4e487b7100000000000000000000000000000000000000000000000000000000600052603260045260246000fd5b0160026003811061286d577f4e487b7100000000000000000000000000000000000000000000000000000000600052603260045260246000fd5b602091828204019190069054906101000a900460ff1660028111156128bb577f4e487b7100000000000000000000000000000000000000000000000000000000600052602160045260246000fd5b145b156129545760016000600381106128fd577f4e487b7100000000000000000000000000000000000000000000000000000000600052603260045260246000fd5b01600260038110612937577f4e487b7100000000000000000000000000000000000000000000000000000000600052603260045260246000fd5b602091828204019190069054906101000a900460ff169050612959565b600090505b90565b600080600260008054906101000a900460ff16612979919061385e565b60ff16141561298b5760019050612990565b600290505b90565b600460009054906101000a900473ffffffffffffffffffffffffffffffffffffffff1673ffffffffffffffffffffffffffffffffffffffff163373ffffffffffffffffffffffffffffffffffffffff161480612a3c5750600560009054906101000a900473ffffffffffffffffffffffffffffffffffffffff1673ffffffffffffffffffffffffffffffffffffffff163373ffffffffffffffffffffffffffffffffffffffff16145b612a4557600080fd5b612a4d6132b2565b15612a8d576040517f08c379a0000000000000000000000000000000000000000000000000000000008152600401612a849061368e565b60405180910390fd5b612a9561334f565b73ffffffffffffffffffffffffffffffffffffffff163373ffffffffffffffffffffffffffffffffffffffff1614612b02576040517f08c379a0000000000000000000000000000000000000000000000000000000008152600401612af99061366e565b60405180910390fd5b612b0a610240565b612b12613413565b600160008054906101000a900460ff16612b2c9190613746565b6000806101000a81548160ff021916908360ff160217905550565b606060006002811115612b83577f4e487b7100000000000000000000000000000000000000000000000000000000600052602160045260246000fd5b60018460ff1660038110612bc0577f4e487b7100000000000000000000000000000000000000000000000000000000600052603260045260246000fd5b018360ff1660038110612bfc577f4e487b7100000000000000000000000000000000000000000000000000000000600052603260045260246000fd5b602091828204019190069054906101000a900460ff166002811115612c4a577f4e487b7100000000000000000000000000000000000000000000000000000000600052602160045260246000fd5b1415612c8d576040518060400160405280600181526020017f4c000000000000000000000000000000000000000000000000000000000000008152509050612f15565b60016002811115612cc7577f4e487b7100000000000000000000000000000000000000000000000000000000600052602160045260246000fd5b60018460ff1660038110612d04577f4e487b7100000000000000000000000000000000000000000000000000000000600052603260045260246000fd5b018360ff1660038110612d40577f4e487b7100000000000000000000000000000000000000000000000000000000600052603260045260246000fd5b602091828204019190069054906101000a900460ff166002811115612d8e577f4e487b7100000000000000000000000000000000000000000000000000000000600052602160045260246000fd5b1415612dd1576040518060400160405280600181526020017f58000000000000000000000000000000000000000000000000000000000000008152509050612f15565b600280811115612e0a577f4e487b7100000000000000000000000000000000000000000000000000000000600052602160045260246000fd5b60018460ff1660038110612e47577f4e487b7100000000000000000000000000000000000000000000000000000000600052603260045260246000fd5b018360ff1660038110612e83577f4e487b7100000000000000000000000000000000000000000000000000000000600052603260045260246000fd5b602091828204019190069054906101000a900460ff166002811115612ed1577f4e487b7100000000000000000000000000000000000000000000000000000000600052602160045260246000fd5b1415612f14576040518060400160405280600181526020017f4f000000000000000000000000000000000000000000000000000000000000008152509050612f15565b5b92915050565b600460009054906101000a900473ffffffffffffffffffffffffffffffffffffffff1673ffffffffffffffffffffffffffffffffffffffff163373ffffffffffffffffffffffffffffffffffffffff161480612fc45750600560009054906101000a900473ffffffffffffffffffffffffffffffffffffffff1673ffffffffffffffffffffffffffffffffffffffff163373ffffffffffffffffffffffffffffffffffffffff16145b612fcd57600080fd5b612fd56132b2565b15613015576040517f08c379a000000000000000000000000000000000000000000000000000000000815260040161300c9061368e565b60405180910390fd5b61301d61334f565b73ffffffffffffffffffffffffffffffffffffffff163373ffffffffffffffffffffffffffffffffffffffff161461308a576040517f08c379a00000000000000000000000000000000000000000000000000000000081526004016130819061366e565b60405180910390fd5b600060028111156130c4577f4e487b7100000000000000000000000000000000000000000000000000000000600052602160045260246000fd5b60018360ff1660038110613101577f4e487b7100000000000000000000000000000000000000000000000000000000600052603260045260246000fd5b018260ff166003811061313d577f4e487b7100000000000000000000000000000000000000000000000000000000600052603260045260246000fd5b602091828204019190069054906101000a900460ff16600281111561318b577f4e487b7100000000000000000000000000000000000000000000000000000000600052602160045260246000fd5b1461319557600080fd5b61319d610240565b6131a5613413565b6131ad61295c565b60018360ff16600381106131ea577f4e487b7100000000000000000000000000000000000000000000000000000000600052603260045260246000fd5b018260ff1660038110613226577f4e487b7100000000000000000000000000000000000000000000000000000000600052603260045260246000fd5b602091828204019190066101000a81548160ff02191690836002811115613276577f4e487b7100000000000000000000000000000000000000000000000000000000600052602160045260246000fd5b0217905550600160008054906101000a900460ff166132959190613746565b6000806101000a81548160ff021916908360ff1602179055505050565b60008060028111156132ed577f4e487b7100000000000000000000000000000000000000000000000000000000600052602160045260246000fd5b6132f56103bf565b600281111561332d577f4e487b7100000000000000000000000000000000000000000000000000000000600052602160045260246000fd5b14158061334a5750600860008054906101000a900460ff1660ff16115b905090565b600080600260008054906101000a900460ff1661336c919061385e565b60ff16141561339f57600460009054906101000a900473ffffffffffffffffffffffffffffffffffffffff1690506133c5565b600560009054906101000a900473ffffffffffffffffffffffffffffffffffffffff1690505b90565b60606133d5600083612b47565b6133e0600184612b47565b6133eb600285612b47565b6040516020016133fd939291906135ca565b6040516020818303038152906040529050919050565b600654607861342291906136f0565b600781905550565b60008135905061343981613941565b92915050565b60006020828403121561345157600080fd5b600061345f8482850161342a565b91505092915050565b6000806040838503121561347b57600080fd5b60006134898582860161342a565b925050602061349a8582860161342a565b9150509250929050565b6134ad816137b1565b82525050565b6134bc816137c3565b82525050565b6134cb81613819565b82525050565b60006134dc826136c9565b6134e681856136d4565b93506134f681856020860161382b565b6134ff8161391c565b840191505092915050565b6000613515826136c9565b61351f81856136e5565b935061352f81856020860161382b565b80840191505092915050565b60006135486017836136d4565b91507f4e6f206573207475726e6f2064656c206a756761646f720000000000000000006000830152602082019050919050565b60006135886015836136d4565b91507f456c206a7565676f206861207465726d696e61646f00000000000000000000006000830152602082019050919050565b6135c481613802565b82525050565b60006135d6828661350a565b91506135e2828561350a565b91506135ee828461350a565b9150819050949350505050565b600060208201905061361060008301846134a4565b92915050565b600060208201905061362b60008301846134b3565b92915050565b600060208201905061364660008301846134c2565b92915050565b6000602082019050818103600083015261366681846134d1565b905092915050565b600060208201905081810360008301526136878161353b565b9050919050565b600060208201905081810360008301526136a78161357b565b9050919050565b60006020820190506136c360008301846135bb565b92915050565b600081519050919050565b600082825260208201905092915050565b600081905092915050565b60006136fb82613802565b915061370683613802565b9250827fffffffffffffffffffffffffffffffffffffffffffffffffffffffffffffffff0382111561373b5761373a61388f565b5b828201905092915050565b60006137518261380c565b915061375c8361380c565b92508260ff038211156137725761377161388f565b5b828201905092915050565b600061378882613802565b915061379383613802565b9250828210156137a6576137a561388f565b5b828203905092915050565b60006137bc826137e2565b9050919050565b60008115159050919050565b60008190506137dd8261392d565b919050565b600073ffffffffffffffffffffffffffffffffffffffff82169050919050565b6000819050919050565b600060ff82169050919050565b6000613824826137cf565b9050919050565b60005b8381101561384957808201518184015260208101905061382e565b83811115613858576000848401525b50505050565b60006138698261380c565b91506138748361380c565b925082613884576138836138be565b5b828206905092915050565b7f4e487b7100000000000000000000000000000000000000000000000000000000600052601160045260246000fd5b7f4e487b7100000000000000000000000000000000000000000000000000000000600052601260045260246000fd5b7f4e487b7100000000000000000000000000000000000000000000000000000000600052602160045260246000fd5b6000601f19601f8301169050919050565b6003811061393e5761393d6138ed565b5b50565b61394a8161380c565b811461395557600080fd5b5056fea2646970667358221220facb4b142df0fea4859603647c868367da33612804d77399d02dde881c5c4eae64736f6c63430008000033",
  "immutableReferences": {},
  "source": "// SPDX-License-Identifier: GPL-3.0\r\n\r\n\r\n// 0,0|1,0|2,0\r\n// 0,1|1,1|2,1\r\n// 0,2|1,2|2,2\r\n\r\npragma solidity >=0.7.0 <0.9.0;\r\n\r\ncontract TresEnRaya\r\n{\r\n    //Contador de Movimientos en el juego\r\n    uint8 movimientos = 0;\r\n\r\n\r\n    //Enumerador del estado del tablero {Nada, X, O}\r\n    enum Estado_Tablero {Libre, X, O}\r\n\r\n    //Tablero vaco de 3x3\r\n    Estado_Tablero[3][3] Tablero;\r\n\r\n    //Variable de almacenamiento de las direcciones de Jugador1 vs Jugador2\r\n    address jugador1;\r\n    address jugador2;\r\n\r\n\r\n    // Variables tiempo por turno\r\n    uint _Empezar; //Inicio\r\n    uint _Terminar; //Fin\r\n\r\n    //Sumador de tiempo en segundos\r\n    function empezar() public{\r\n        _Empezar = block.timestamp;\r\n    }\r\n\r\n    //Tope en segundos donde debe llegar\r\n    function finalizar() public{\r\n        _Terminar = 120+_Empezar;\r\n    }\r\n\r\n    //Funcion Ver tiempo en la Dapp \r\n   function Tiempo() public view returns (uint)\r\n    {\r\n       return _Terminar-block.timestamp;\r\n    }\r\n    \r\n    //Funcion Pasar_turno por exceso de Tiempo en la Dapp \r\n    function Pasar_turno() public\r\n    {\r\n        // Comprobar que los jugadores estan en juego\r\n        require (msg.sender == jugador1 || msg.sender == jugador2);\r\n\r\n        //Comprobar que el juego no ha acabado\r\n        require(!EsFin(), \"El juego ha terminado\");\r\n\r\n        //Comprobar que el jugador puede mover\r\n        require (msg.sender == Control_turno(),\"No es turno del jugador\");\r\n\r\n        \r\n        //Si todo se cumple se reinician contadores y se pasa turno\r\n        empezar();\r\n        finalizar();      \r\n        movimientos = movimientos + 1;   \r\n        \r\n    }\r\n\r\n    //Inicializar Variable de los jugadores en el constructor\r\n\r\n    constructor (address _jugador2) \r\n    {\r\n        //Jugador 1 y 2 no pueden tener una cuenta null // valor 0 \r\n        //require (jugador1 != address(0));\r\n        require (_jugador2 != address(0));\r\n\r\n        jugador1 = msg.sender; //Jugador1 siempre ser el que crea el contrato O inicia la partida\r\n        jugador2 = _jugador2; // Pasamos por parmetro la direccin del Jugador 2.\r\n\r\n        //Tiempo\r\n        empezar(); //Inicializar Contador\r\n        finalizar(); //Inicializar 120 segundos\r\n\r\n\r\n    } // Fin constructor\r\n\r\n    function Movimientos(uint8 x, uint8 y) public\r\n    {\r\n        // Comprobar que los jugadores estan en juego\r\n        require (msg.sender == jugador1 || msg.sender == jugador2);\r\n\r\n        //Comprobar que el juego no ha acabado\r\n\r\n        require(!EsFin(), \"El juego ha terminado\");\r\n\r\n        //Comprobar que el jugador puede mover\r\n\r\n        require (msg.sender == Control_turno(),\"No es turno del jugador\");\r\n\r\n        //Comprobar que el campo seleccionado este vaco\r\n\r\n        require (Tablero[x][y] == Estado_Tablero.Libre);\r\n        empezar(); // reiniciamos contador de tiempo\r\n        finalizar(); // 60 segundos de tiempo\r\n        Tablero[x][y] = Dibujar_Figura_Jugador();\r\n        \r\n        movimientos = movimientos + 1;\r\n\r\n    }\r\n\r\n    function Reglas_Ganar() public view returns (Estado_Tablero)\r\n    {\r\n        // Por columnas\r\n        if(Tablero[0][0] != Estado_Tablero.Libre && Tablero[0][0]== Tablero [0][1] && Tablero[0][0] == Tablero[0][2])\r\n        {\r\n            return Tablero[0][0];\r\n        }else if (Tablero[1][0] != Estado_Tablero.Libre && Tablero[1][0]== Tablero [1][1] && Tablero[1][0] == Tablero[1][2])\r\n        {\r\n            return Tablero[1][0];\r\n        }else if (Tablero[2][0] != Estado_Tablero.Libre && Tablero[2][0]== Tablero [2][1] && Tablero[2][0] == Tablero[2][2])\r\n        {\r\n            return Tablero[1][0];\r\n        }\r\n\r\n        // Por Filas\r\n        if(Tablero[0][0] != Estado_Tablero.Libre && Tablero[0][0]== Tablero [1][0] && Tablero[0][0] == Tablero[2][0])\r\n        {\r\n            return Tablero[0][0];\r\n        }else if (Tablero[0][1] != Estado_Tablero.Libre && Tablero[0][1]== Tablero [1][1] && Tablero[0][1] == Tablero[2][1])\r\n        {\r\n            return Tablero[0][1];\r\n        }else if (Tablero[0][2] != Estado_Tablero.Libre && Tablero[0][2]== Tablero [1][2] && Tablero[0][2] == Tablero[2][2])\r\n        {\r\n            return Tablero[0][2];\r\n        }\r\n        \r\n        // Por Diagonal\r\n\r\n        if(Tablero[0][0] != Estado_Tablero.Libre && Tablero[0][0]== Tablero [1][1] && Tablero[0][0] == Tablero[2][2])\r\n        {\r\n            \r\n            return Tablero[0][0];\r\n\r\n        }else if (Tablero[0][2] != Estado_Tablero.Libre && Tablero[0][2]== Tablero [1][1] && Tablero[0][2] == Tablero[2][0])\r\n        {\r\n\r\n            return Tablero[0][2];\r\n\r\n        }\r\n\r\n        return Estado_Tablero.Libre;\r\n    }\r\n\r\n    //Comprobar turno del jugador\r\n    function Control_turno() public view returns (address)\r\n    {\r\n        //Si el numero es Par el jugador 1 tendr turno de tirada\r\n        if(movimientos % 2 == 0)\r\n        {\r\n            return jugador1;\r\n        }else ///Si el numero es Impar el jugador 2 tendr turno de tirada\r\n        {\r\n            return jugador2;\r\n        }\r\n    }\r\n\r\n    //Dibujar el Simbolo correspondiente a cada jugador en el juego\r\n\r\n    function Dibujar_Figura_Jugador() public view returns (Estado_Tablero)\r\n    {\r\n        if(movimientos % 2 == 0)\r\n        {\r\n            return Estado_Tablero.X;\r\n        }else\r\n        {\r\n            return Estado_Tablero.O;\r\n        }\r\n    }\r\n\r\n    //Comprobar si el juego ha acabado (2 posibilidades)\r\n    function EsFin() public view returns (bool)\r\n    {\r\n\r\n        // La partida acaba si hay ganador sin espacios de tablero libre o si los movimientos llegan a ocupar las 8 posiciones o equivalente a tablero lleno. \r\n        return (Reglas_Ganar() != Estado_Tablero.Libre || movimientos > 8 );\r\n    \r\n    }\r\n\r\n    function Ganador() public view returns (uint) \r\n    {\r\n        Estado_Tablero Ganador_Final = Reglas_Ganar();\r\n\r\n        if (Ganador_Final == Estado_Tablero.O ) \r\n        {\r\n\r\n            return 1;\r\n\r\n        }else if(Ganador_Final == Estado_Tablero.X) \r\n        {\r\n\r\n            return 2;\r\n\r\n        }else\r\n        {\r\n\r\n            return 0;\r\n\r\n        }    \r\n    }\r\n\r\n    // Retorno general del estado del tablero\r\n    function MostrarTableroFilas() public view returns (string memory)\r\n    {\r\n        return string(abi.encodePacked(FilaVirtual(0),FilaVirtual(1),FilaVirtual(2)));\r\n\r\n    } // Fin IntrosFilas\r\n\r\n    //Comprobador segn estados del tablero posicion X , Y , L \r\n    function ControlTablero(uint8 x, uint8 y) public view returns (string memory)\r\n    {\r\n        if(Tablero[x][y] == Estado_Tablero.Libre)\r\n        {\r\n            return 'L';\r\n        }else if (Tablero[x][y] == Estado_Tablero.X )\r\n        {\r\n            return 'X';\r\n        }else if (Tablero[x][y] == Estado_Tablero.O )\r\n        {\r\n            return 'O';\r\n        }\r\n\r\n    } //Fin TableroVirtual\r\n\r\n    // retorno de filas pasando y por parametro \r\n    function FilaVirtual(uint8 y) public view returns (string memory)\r\n    {\r\n        \r\n        return string(abi.encodePacked(ControlTablero(0,y),ControlTablero(1,y),ControlTablero(2,y))) ; \r\n        \r\n    } //Fin FilaVirtual\r\n\r\n\r\n\r\n\r\n\r\n} // Fin contrato\r\n",
  "sourcePath": "/home/struker/Proyecto_Final_Web3/contracts/TresEnRaya.sol",
  "compiler": {
    "name": "solc",
    "version": "0.8.0+commit.c7dfd78e.Emscripten.clang"
  },
  "schemaVersion": "3.4.3",
  "updatedAt": "2022-03-03T14:02:15.843Z",
  "devdoc": {
    "kind": "dev",
    "methods": {},
    "version": 1
  },
  "userdoc": {
    "kind": "user",
    "methods": {},
    "version": 1
  }
}